:101F10007374617274696E672070726F6772616D3D
:101F20002E2E2E0A004D6F756E74696E6720534415
:101F300020636172640A0053442063617264206DFF
:101F40006F756E7465640A00534420636172642087
:101F50006661696C656420746F206D6F756E740ABC
:101F600000526F6F74206469726563746F72793A9E
:101F70000A0A00456E74657220616E20656E747287
:101F800079206E756D6265723A200A00256C7520A5
:101F90002000256C7520200A004572726F723A206D
:101FA000696E76616C696420656E7472792063680D
:101FB0006F6963650A005374617274696E672E2ECF
:021FC0002E00F1
:1015C900758E0C758F017F101226017F0F12261957
:1015D9007F2C7E0112254A7F807E2512245E1224EB
:1015E900267BFF7A1F79B67D0BE4FF1220E77BFF8C
:1015F9007A1F7910120C5E7F407E0D7D037C0012EC
:10160900205B8F22E522600C7F101226017F531286
:10161900257080FE7F4012260112080A8F22E522DA
:10162900600C7F101226017F4312257080FE7F40D7
:101639001226157F007E2D7D317C0112205B8F22C1
:10164900E522600C7F101226017F5012257080FE62
:101659007BFF7A1F7925120C5E7E007F001204142D
:10166900EF70157BFF7A1F7937120C5E7F101226F7
:10167900157F80122601800B7BFF7A1F7948120C97
:101689005E80FE7BFF7A1F7961120C5E1225FA904B
:1016990000061202BE8F2E8E2D8D2C8C2BAF2EAEF6
:1016A9002DAD2CAC2B7537007538001213E3E48F80
:1016B9002A8E29F528F5277BFF7A1F7973120C5E8C
:1016C900121E3F8F268E258D248C237BFF7A1F794E
:1016D9008C8F618E608D5F8C5E120C5E7BFF7A1F32
:1016E9007992852E61852D60852C5F852B5E120C84
:1016F9005EAF2AAE29AD28AC27AB26AA25A924A816
:1017090023D31202875063AF2EAE2DAD2CAC2B8A9A
:10171900378B38753900753A00120F588F328E3170
:101729008D308C2FE4FFFEFDE52F5410FC6027E57A
:1017390032F532E531F531E530F530E52F540FF565
:101749002FAF32AE31AD30FC12216C8F2E8E2D8D24
:101759002C8C2B0216A6AF32AE31AD30AC2F7537BB
:10176900007538001218E70216A67BFF7A1F7999CF
:06177900120C5E0216A630
:1024F9008D39EF70077F4012260680057F4012262E
:102509001D7F8012261DAF391226257F80122606CF
:0A2519007FFF1226257F4002261DD9
:102426007D38E4FF1224F97F017E0012254A7D489B
:10243600E4FF1224F97F017E0012254A7D01E4FFA4
:102446001224F97F027E0012254A7D0CE4FF122435
:08245600F97F017E0002254A16
:0820E7008D338B348A358936F4
:1020EF00EFF46010EF4480FDE4FF1224F97F017ECE
:1020FF000012254AE5337038F537AB34AA35A936C7
:10210F00853782F58312001CF538E538604EFD7F68
:10211F00011224F97F017E0012254A0537AB34AA3C
:10212F0035A93685378275830012001CF53880DAA1
:10213F00E4F537E537C395335022AB34AA35A936CA
:10214F0085378275830012001CF538FD7F0112243C
:0C215F00F97F017E0012254A053780D769
:01216B002251
:05260100EFF452A022DD
:04261500EF42A022CE
:032625008F802281
:05260600EFF452B022C8
:04261900EF42A022CA
:04261D00EF42B022B6
:082391008F5E8E5D8D5C8C5B9C
:102399001226108F647F1012260BAF5EAE5DAD5C06
:1023A900AC5BA964A8011202AB8F6A8E698D688C37
:1023B900677F11121B628F65E565700DAB61AA62BB
:1023C900A963AF60AE5F121C627F10122621E5651A
:0723D90060037F01227F0079
:0123E00022DA
:0C25D0005306018F828E8312001CFF2234
:0A2493008E5B8F5C8B5D8A5E895FB3
:10249D00535B01E4FDFCE55C2401FFE4355B8F82B9
:1024AD00F58312001CFD7D00FC855C82855B83122B
:0824BD00001CFFE4EFFDAE047A
:0124C50022F4
:0422CE008E5B8F5C38
:1022D200535B01E4F560F55FF55EF55DF562AF62B3
:1022E200C374039562CFE49400CF255CCF355B8F36
:1022F20082F58312001CF561AF60AE5FAD5EAC5D2E
:1023020078081202AB8F608E5F8D5E8C5DE4E560B3
:102312004561F560E55FF55FE55EF55EE55DF55DFE
:0F2322000562E562B404B7AF60AE5FAD5EAC5D5F
:012331002289
:10205B00E4F533AB07AA06A905A804FF7E407D195A
:10206B007C011201F5EFD39402500575C3708069A2
:10207B00EFD39402400BEFD39404500575C37180DA
:10208B0058EFD39404400BEFD39408500575C372EB
:10209B008047EFD39408400BEFD39410500575C3D2
:1020AB00738036EFD39410400BEFD394205005750B
:1020BB00C3F08025EFD39420400BEFD39440500511
:1020CB0075C3F18014EFD39440400BEFD394805041
:0B20DB000575C3F2800375330FAF33AF
:0120E60022D7
:1024C600E4FE8FC5AFC40EEF54F07003EE70F5EE68
:1024D6006017EF54707009E5C512007CE4FE8010A9
:1024E60074FF12007CE4FE800774FF12007C7E807D
:0224F600AF062F
:0124F80022C1
:04262100EF429022D2
:05260B00EFF4529022E3
:10254A005389F0438901C2A9758CF4758A3DC28DFD
:10255A00D28C308DFDC28CEF1F70011ED3EF940018
:06256A00EE940050E32294
:10245E0053873F438780C2AC759852E4F59BFCFDD1
:10246E007BC0FAF9F812016AA804A905AA06AB07FF
:10247E00E4FFFE7D2F7C0D1201F5EFF404F59A7545
:05248E009B1ED2992203
:10257000E4FDFC0DBD00010C209904ED4C70F4ED60
:0F2580004C60088F99AE07C29980027EF1AF06BA
:01258F002229
:0725F2003098FDAF99C2987B
:0125F90022BF
:1011D5005344204361726420496E697469616C6986
:1011E5007A6174696F6E202E2E2E200A0D00434DF4
:1011F50044302073656E74202E2E2E2000526573A8
:10120500706F6E7365203D2025322E3262580A0DAF
:1012150000434D44382073656E74202E2E2E200019
:10122500526573706F6E7365203D200025322E3236
:101235006258200A0D0056657273696F6E20312061
:101245005344204361726420646574656374656406
:101255002E0A0D005374616E6461726420436170DF
:1012650061636974792043617264206465746563A0
:101275007465642E0A0D0025322E32625820005600
:10128500657273696F6E2032205344204361726426
:101295002064657465637465642E0A0D00434D44CE
:1012A50035382073656E74202E2E2E200041434D57
:1012B5004434312073656E74202E2E2E200054691F
:1012C5006D656F7574203D20256C75200A0D0048ED
:1012D500696768204361706163697479204361724D
:1012E500642044657465637465640A0D0053746114
:1012F5006E6461726420436170616369747920432F
:101305006172642044657465637465640A0D004305
:101315004D4431362073656E74202E2E2E200052DA
:101325006573706F6E7365203D2025322E326258CD
:10133500200A0D00426C6F636B2073697A65207318
:10134500657420746F203531322062797465730AB3
:101355000D0053442054696D656F75742045727294
:101365006F7200496C6C6567616C20436F6D6D61D0
:101375006E640A0D00526573706F6E736520457259
:10138500726F72004461746120546F6B656E204505
:1013950072726F7200496E636F6D70617469626C11
:1013A5006520566F6C7461676500436172642069DE
:1013B5007320496E61637469766500535049206FE7
:1013C500722054696D656F7574204572726F720075
:0E13D500556E6B6E6F776E204572726F7200F0
:0B1B5700E4F56AF569F568F5677F3A70
:021B62008F668C
:101B6400E4F56CE566C394404003021C5CE56644FE
:101B740040F56B7B007A00796DFF1224C68F6EE509
:101B84006E701CAF6AAE69AD68AC677818120298C3
:101B94008F6B7B007A00796D1224C68F6E8003757B
:101BA4006C87E56C702FE56E702BE56AF56AE56964
:101BB400F569E568F568E4F567AF6AAE69AD68ACE8
:101BC4006778101202988F6B7B007A00796D12246B
:101BD400C68F6E8003756C87E56C702DE56E702979
:101BE400E56AF56AE569F569E4F568F567AF6AAE33
:101BF40069AD68AC6778081202988F6B7B007A0035
:101C0400796D1224C68F6E8003756C87E56C70182D
:101C1400E56E7014E56AFFE48F6BFB7A00796DAFB3
:101C24006B1224C68F6E8003756C87E56C702CE58F
:101C34006E7028E5667005756B95800DE566B408D1
:101C440005756B878003756B017B007A00796DAF36
:0D1C54006B1224C68F6E8003756C82AF6C1E
:011C61002260
:071FC200FB7A0079367F0174
:081FC9008F478B488A49894AC1
:101FD100E4F54C7B007A00794E7FFF1224C68F4DC9
:101FE100054BE54E30E708E54B6004E54D60E4E55F
:101FF1004D6005754C878052E54B7005754C8180AD
:1020010049AB48AA49A94AE54E12007CE54E600455
:1020110064017033E547D39401402F754B01E54BC3
:10202100C3954750257B007A00794E7FFF1224C665
:102031008F4DAB48AA49A94A854B82758300E54E6D
:1020410012008E054B80D7754C837B007A00794E48
:092051007FFF1224C68F4DAF4C35
:01205A002263
:0A1C62008E668F678B688A69896AB5
:101C6C00E4F56EF56FF56C7B007A00796D7FFF12F1
:101C7C0024C68F6B056FE56F7002056EE56D30E75E
:101C8C000AE56F456E6004E56B60DCE56B6006751C
:101C9C006C87021D51E56F456E7006756C81021DD7
:101CAC0051E56D6003021D4EF56EF56F7B007A00F9
:101CBC00796D7FFF1224C68F6B056FE56F7002057F
:101CCC006EE56DB4FF0AE56F456E6004E56B60DC94
:101CDC00E56B6005756C87806CE56F456E700575FE
:101CEC006C818061E56D64FE7053F56EF56FC3E534
:101CFC006F9567E56E956650287B007A00796D7F4D
:101D0C00FF1224C68F6BAB68AA69A96A856F82859E
:101D1C006E83E56D12008E056FE56F70D1056E80D8
:101D2C00CD7B007A00796D7FFF1224C68F6B7B0010
:101D3C007A00796D7FFF1224C68F6B8008756C84D6
:101D4C008003756C837B007A00796D7FFF1224C64B
:041D5C008F6BAF6C6E
:011D60002260
:10080A00E4F534781F76FF7F101226217BFF7A11D8
:10081A0079D5120C5EE4F5337B007A00793E7FFFCE
:10082A001224C68F350533E533C3940A40EA7F8024
:10083A001226017BFF7A1179F3120C5E7F101226C1
:10084A000BE4F56AF569F568F567FF121B628F35E7
:10085A00E5357013121FC28F357BFF7A1279028534
:10086A00365E120C5E80057F101226017F1012265A
:10087A00217F80122615E5356002F534E5346003E0
:10088A000209697F801226017BFF7A127916120CFF
:10089A005E7F1012260BE4756AAA756901F568F580
:1008AA00677F08121B628F35E535600302095AFB20
:1008BA007A0079367F05121FC98F357F10122621DB
:1008CA007F80122615E535603F7BFF7A1279251263
:1008DA000C5E7BFF7A12793185365E120C5EE53545
:1008EA00B48320E536B4051BE4F534781F76097B1A
:1008FA00FF7A12793B120C5E7BFF7A127959120C3D
:10090A005E805C85353480577BFF7A127925120C1C
:10091A005EE4F5337BFF7A12797C74362533F8E688
:10092A00F55E120C5E0533E533C3940540E67F0D90
:10093A001225237F0A122523E53A64AA6003753536
:10094A0083781F76027BFF7A127984120C5E800FFD
:10095A007F101226217F801226157F10122601E5AC
:10096A003460030209F47F801226017BFF7A127930
:10097A00A2120C5E7F1012260B121B578F35E5351B
:10098A007053FB7A0079367F05121FC98F357F10A5
:10099A001226217F801226157BFF7A127925120CE6
:1009AA005EE4F5337BFF7A12797C74362533F8E6F8
:1009BA00F55E120C5E0533E533C3940540E67F0D00
:1009CA001225237F0A122523E53854FC64FC60149F
:1009DA00753585800F7F101226217F801226157F9C
:1009EA0010122601E5356002F534E5346003020A87
:1009FA00E4781FE6B4020CE4F542F541F540753F90
:100A0A00408009E4F542F541F540F53FE4F546F545
:100A1A0045F544F5437F201226017BFF7A1279B20D
:100A2A00120C5E7F1012260BE4F56AF569F568F57B
:100A3A00677F37121B628F35E5357005121FC28F2B
:100A4A0035E53664016004E536701385426A8541EE
:100A5A0069854068853F677F29121B628F35E535B6
:100A6A007003121FC27F10122621E5462401F546A3
:100A7A00E43545F545E43544F544E43543F543E4C6
:100A8A00FFFEFDFCAB46AA45A944A843C312028750
:100A9A007003753581E53630E004E5356085E53566
:100AAA0070137F201226157BFF7A12790285365E33
:100ABA00120C5E800A7F801226157F101226017B97
:100ACA00FF7A1279C385466185456085445F85430F
:100ADA005E120C5EE5356002F534E5346003020B04
:100AEA00F1781FE664026003020BF17F801226018F
:100AFA007BFF7A1279A2120C5E7F1012260B121B50
:100B0A00578F35E5356003020BD7FB7A0079367FBC
:100B1A0005121FC98F357F101226217F80122615D4
:100B2A007BFF7A127925120C5EE4F5337BFF7A1289
:100B3A00797C74362533F8E6F55E120C5E0533E5EA
:100B4A0033C3940540E67F0D1225237F0A1225231D
:100B5A00E53720E706753586020BE6E53754C0FF10
:100B6A00BFC00FE4781FF67BFF7A1279D4120C5EAD
:100B7A00806A781F76097BFF7A1279F2120C5E7FFF
:100B8A00801226017BFF7A137914120C5E7F1012F1
:100B9A00260BE4F56A756902F568F5677F10121B82
:100BAA00628F35E5357035121FC28F357F101226D8
:100BBA00217F801226157BFF7A13792485365E12EF
:100BCA000C5E7BFF7A137939120C5E800F7F10124C
:100BDA0026217F801226157F10122601E53560072F
:100BEA00F534AF34122260E5346004FF122260AF9C
:010BFA0034C6
:010BFB0022D7
:05261000781FE6FF2227
:102260008F47E547B481097BFF7A137957020C5EEB
:10227000E547B482097BFF7A137968020C5EE54773
:10228000B483097BFF7A13797A020C5EE547B48444
:10229000097BFF7A137989020C5EE547B485097BD7
:1022A000FF7A13799A020C5EE547B486097BFF7AC0
:1022B0001379AF020C5EE547B487097BFF7A137987
:0E22C000C0020C5E7BFF7A1379D5120C5E22F1
:0D25C3002535642E20005B4449525D0A005E
:0725FA007B007A0079092241
:0813E3008F368E358D348C33FA
:1013EB00754A0185374B85384CE4F543F544F54197
:1013FB00F542780AE6B4020F781B1203128F408E67
:10140B003F8D3E8C3D800D7809E6FFE48F40F53F24
:10141B00F53EF53D85363C85353B85343A8533398C
:10142B00AF3CAE3BAD3AAC39780DE6F55F08E6F56F
:10143B0060854A61854B62854C631223918F49E528
:10144B004960030215BFAB4AAA4BA94CAF42AE4150
:10145B001225D08F45E54564E57003021531E5454E
:10146B007003021531E542240BFFE43541FEAB4A14
:10147B00AA4BA94C1225D08F47E547540E600302A7
:10148B0015310544E544700205437BFF7A2579C38A
:10149B0085435EF55F120C5EE4F5467E00E5422562
:1014AB0046FFEE3541FEAB4AAA4BA94C1225D08F15
:1014BB00481225230546E546C3940840DEE5473030
:1014CB00E4307546087E00E5422546FFEE3541FEC9
:1014DB00AB4AAA4BA94C1225D08F4812252305469F
:1014EB00E546C3940B40DE7BFF7A2579C9120C5E6F
:1014FB0080347F2E1225237546087E00E542254653
:10150B00FFEE3541FEAB4AAA4BA94C1225D08F48B2
:10151B001225230546E546C3940B40DE7F0D1225AD
:10152B00237F0A12252374202542F542E43541F529
:10153B0041D3E54294FEE5419401406FE53C240123
:10154B00F53CE4353BF53BE4353AF53AE43539F512
:10155B0039C3E53C9536FFE53B9535FEE53A9534C9
:10156B00FDE5399533FCAB40AA3FA93EA83DD3120C
:10157B0002874031AF3CAE3BAD3AAC39780DE6F566
:10158B005F08E6F560854A61854B62854C631223E3
:10159B00918F49E5496007E4F543F544F545E4F5DA
:1015AB0041F5428006434380E4F545E5456003027F
:0D15BB0014518005E4F543F544AE43AF4400
:0115C8002200
:080F58008F368E358D348C3389
:100F6000754E0185394F853A50E4F549F54AF54704
:100F7000F548F546F545F544F543780AE6B4020F21
:100F8000781B1203128F428E418D408C3F800D786A
:100F900009E6FFE48F42F541F540F53F85363E8591
:100FA000353D85343C85333BAF3EAE3DAD3CAC3B3F
:100FB000780DE6F55F08E6F560854E61854F628540
:100FC00050631223918F4DE54D60030211A6AB4E85
:100FD000AA4FA950AF48AE471225D08F4BE54B64BE
:100FE000E57003021116E54B7003021116E5482463
:100FF0000BFFE43547FEAB4EAA4FA9501225D08F08
:101000004CE54C540E6003021116054AE54A700285
:10101000054965387004E5496537600302111678A3
:101020000AE664047066E5482415FFE43547FEAB24
:101030004EAA4FA9501225D0E48F46F545F544F548
:1010400043AE45AD44AC4378081202AB8F468E45A3
:101050008D448C43E5482414FFE43547FEAB4EAA8B
:101060004FA9501225D0E4E5464FF546E545F54534
:10107000E544F544E543F543AF46AE45AD44FC7861
:10108000081202AB8F468E458D448C43E548241BE5
:10109000FFE43547FEAB4EAA4FA9501225D0E4E538
:1010A000464FF546E545F545E544F544E543F5434A
:1010B000AF46AE45AD44FC78081202AB8F468E4574
:1010C0008D448C43E548241AFFE43547FEAB4EAA15
:1010D0004FA9501225D0E4E5464FF546E545F545C4
:1010E000E544F544E543F543E548240BFFE4354783
:1010F000FEAB4EAA4FA9501225D08F4CE54C30E4E0
:1011000012E546F546E545F545E544F544E5434435
:1011100010F543E4F54B74202548F548E43547F5D0
:1011200047D3E54894FEE54794014071E53E24012C
:10113000F53EE4353DF53DE4353CF53CE4353BF525
:101140003BC3E53E9536FFE53D9535FEE53C9534E0
:10115000FDE53B9533FCAB42AA41A940A83FD31221
:1011600002874036AF3EAE3DAD3CAC3B780DE6F578
:101170005F08E6F560854E61854F628550631223F6
:10118000918F4DE54D600CE4F546F545F54475430A
:1011900080F54BE4F547F5488003E4F54BE54B60FB
:1011A00003020FCE800AE4F546F545F54475438009
:1011B000E4FFFEFDFCAB46AA45A944A843C31202C6
:1011C000877009F546F545F544754380AF46AE4551
:0411D000AD44AC433B
:0111D40022F8
:101A2E0046696E64696E672042494F532070617239
:101A3E00616D6574657220626C6F636B0A0065720E
:101A4E00726F723A20636F756C64206E6F74206CC7
:101A5E006F63617465204250420A006572726F7244
:101A6E003A20464154313220756E737570706F7224
:101A7E007465640A004641543136206465746563AA
:101A8E007465640A0046415433322064657465639C
:101A9E007465640A004572726F723A204641542092
:101AAE007479706520756E737570706F727465647D
:101ABE000A004572726F723A20636F756C646E27FE
:101ACE00742066696E64206E65787420636C75731D
:101ADE007465720A00202A2A2A2A204F70656E69C0
:101AEE006E672046696C65202A2A2A2A0A005072DF
:101AFE006573732027652720746F20657869740AD3
:101B0E0000507265737320276E2720746F207072D9
:101B1E00696E74206E6578746E20736563746F726F
:101B2E000A00202A2A2A2A20636C75737465723A79
:101B3E0020256C75202020736563746F723A202502
:091B4E006C75202A2A2A2A0A00DB
:10041400AA06A9077555018A5689571225FA8B58D9
:100424008A59895A7BFF7A1A792E120C5E755F02FB
:100434007560008555618556628557637F007E002F
:100444007D007C00122391AB55AA56A957E4FFFE08
:100454001225D08F33E4F550F54FF54EF54DE533C5
:1004640064EB603BE53364E96035AB55AA56A957A4
:100474007FC67E011222CE8F508E4F8D4E8C4D75CD
:100484005F02756000855561855662855763122346
:1004940091AB55AA56A957E4FFFE1225D08F33E538
:1004A4003364EB6012E53364E9600C7BFF7A1A79FC
:1004B4004C120C5E7F0122AB55AA56A9577F0B7EC6
:1004C40000122493AB58AA59A95A900004EE8FF055
:1004D40012013D900002E412008E90000412010506
:1004E400FDACF0ED64014C6017AB58AA59A95A90C1
:1004F40000027401120049ECC313FCED13FD80E308
:10050400AB55AA56A9577F0D7E001225D0AB58AA29
:1005140059A95AEF12007CAB55AA56A9577F0E7EF3
:10052400001224938E378F38AB55AA56A9577F10E3
:100534007E001225D08F34AB55AA56A9577F117E61
:10054400001224938E358F36AB55AA56A9577F16C1
:100554007E001224938E398F3AAB55AA56A9577F41
:10056400137E001224938E3B8F3CAB55AA56A95799
:100574007F2C7E001222CE8F548E538D528C51E5E7
:100584003A45396018AB55AA56A9577F167E001212
:100594002493E48F448E43F542F5418015AB55AA6C
:1005A40056A9577F247E001222CE8F448E438D425B
:1005B4008C41E53C453B600DE4853C48853B47F573
:1005C40046F5458015AB55AA56A9577F207E0012E3
:1005D40022CE8F488E478D468C45AB58AA59A95ACE
:1005E400900004120105FDACF024FFFBEC34FFFA8B
:1005F400E536AE357805C333CE33CED8F92BFFEAD2
:100604003EFE1200B0E4FCFDAB58AA59A95A900072
:10061400121202EEAF34E4FCFDFEAB44AA43A9423D
:10062400A84112016AA804A905AA06AB07E4FCFDC7
:10063400EB2538FFEA3537FEED39FDEC38FCAB58D5
:10064400AA59A95A90001212031EEF2BFBEE3AFA94
:10065400ED39F9EC38F8C3E5489BF54CE5479AF5D4
:100664004BE54699F54AE54598F549E4E5382550C2
:10067400FFE537354FFEE4354EFDE4354DFCAB5810
:10068400AA59A95A90000E1202EE90000E12031EEF
:10069400C000C001C002C003AF34E4FCFDFEAB44A3
:1006A400AA43A942A84112016AD003D002D001D0C2
:1006B40000EF2BFFEE3AFEED39FDEC38FCAB58AA07
:1006C40059A95A90001212031EEF2BFFEE3AFEEDC9
:1006D40039FDEC38FCAB58AA59A95A90000A120209
:1006E400EE120003FFE4FCFDFEF8F9FAAB07AF4C91
:1006F400AE4BAD4AAC491201F58F408E3F8D3E8C16
:100704003DE47FF57E0FFDFCAB40AA3FA93EA83D2A
:10071400C3120287500C7BFF7A1A7969120C5E7F30
:100724000122E47FF57EFFFDFCAB40AA3FA93EA871
:100734003DC3120287505EAB58AA59A95A900001D2
:10074400740212008E7BFF7A1A7983120C5EAB5806
:10075400AA59A95A90000E12031EC000C001C0027B
:10076400C003AF34E4FCFDFEAB44AA43A942A84154
:1007740012016AD003D002D001D000EF2BFFEE3A71
:10078400FEED39FDEC38FCAB58AA59A95A90000685
:100794001202EE806EAB58AA59A95A900001740453
:1007A40012008E7BFF7A1A7993120C5EE55424FEB4
:1007B400FFE55334FFFEE55234FFFDE55134FFFC01
:1007C400A804C005C006C007AB58AA59A95A12000C
:1007D40003FFE4FCFDFED003D002D00112016AAB9A
:1007E40058AA59A95A90000A12031EEF2BFFEE3A99
:1007F400FEED39FDEC38FCAB58AA59A95A90000615
:050804001202EE7F006E
:0108090022CC
:08216C008F4B8E4A8D498C480F
:102174001225FA8B4C8A4D894EE4FFFEFDFCAB4BD5
:10218400AA4AA949A848C3120287700CAB4CAA4DAD
:10219400A94E9000060202BEE54B24FEFFE54A3438
:1021A400FFFEE54934FFFDE54834FFFCA804C00503
:1021B400C006C007AB4CAA4DA94E120003FFE4FCB5
:1021C400FDFED003D002D00112016AAB4CAA4DA986
:1021D4004E90000A12031EEF2BFFEE3AFEED39FD7E
:0321E400EC38FCD8
:0121E70022D5
:08177F008F4B8E4A8D498C4806
:101787001225FA8B578A588959754E01854C4F8512
:101797004D5090000112001CFFE4FCFDFEAB4BAA6C
:1017A7004AA949A84812016AC004C005C006C00773
:1017B700AB57AA58A959900004120105FFAEF0E4EF
:1017C700FCFDF8F9AA06AB07D007D006D005D00470
:1017D7001201F5AB57AA58A95990000E12031EEF34
:1017E7002BFFEE3AFEED39FDEC38FCAB57AA58A9B2
:1017F70059900004120105F56085F05F854E6185FB
:101807004F62855063122391AB57AA58A95990008C
:101817000112001CFFE4FCFDFEAB4BAA4AA949A834
:101827004812016AC004C005C006C007AB57AA58D2
:10183700A959900004120105FFAEF0E4FCFDF8F988
:10184700AA06AB07D007D006D005D0041201F5AE23
:1018570002AF038E518F52AB57AA58A95990000176
:1018670012001CB40411AB4EAA4FA9501222CEEF9E
:10187700EEEDEC540FFC22AB57AA58A95990000182
:1018870012001C6402703BAB4EAA4FA950AF52AE78
:1018970051122493E48F568E55F554F5537FFF7EEE
:1018A700FFFDFCAB56AA55A954A853C31202877073
:1018B7000874FFFFFEFD7C0F22AF56AE55AD54AC4A
:1018C70053227BFF7A1A79A3120C5EE4FFFEFDFC1C
:0F18D700227BFF7A1A79C0120C5EE4FFFEFDFC43
:0118E60022DF
:0818E7008F368E358D348C33F1
:1018EF001225FA8B458A468947754201853743850C
:1018FF003844E4F540F53FF53EF53D7BFF7A1A7924
:10190F00E3120C5E7BFF7A1A79FC120C5E7BFF7A76
:10191F001B790F120C5EE4FFFEFDFCAB40AA3FA942
:10192F003EA83DC31202877013AF36AE35AD34AC4F
:10193F003312216C8F3C8E3B8D3A8C39E53C254020
:10194F00FFE53B353FFEE53A353EFDE539353DFCDC
:10195F00AB45AA46A947900004120105F56085F032
:10196F005F8542618543628544631223917BFF7AD1
:10197F001B793085366185356085345F85335EE54B
:10198F003C2540F565E53B353FF564E53A353EF5D9
:10199F0063E539353DF562120C5EAB45AA46A947A2
:1019AF00900004120105FDACF0AB42AA43A944120A
:1019BF002332E5402401F540E4353FF53FE4353E61
:1019CF00F53EE4353DF53DAB45AA46A94712000368
:1019DF00FFE4FCFDFEAB40AA3FA93EA83DC31202A7
:1019EF00877022AF36AE35AD34AC3385434C85446A
:1019FF004D12177F8F368E358D348C33E4F540F5CD
:101A0F003FF53EF53D1225A38F41E5416465600525
:0E1A1F00E541B46EF0E54164656003021925EF
:011A2D002296
:1023E1002570200025322E3262582000416464722B
:1023F1002E20202030202031202032202033202088
:102401003420203520203620203720203820203944
:10241100202041202042202043202044202045200C
:0524210020460A0D0039
:1021E8008B508A5189528B5E8A5F89607BFF7A2384
:1021F80079E1120C5EE4F553AB50AA51A95285530C
:102208008275830012001CF5547BFF7A2379E5F56B
:102218005E120C5E0553E553C3941040DBE4F5539E
:10222800AB50AA51A95285538275830012001CF540
:1022380054C394204007E554D3947F400375542E2B
:10224800AF541225700553E553C3941040D27F0D47
:082258001225707F0A022570B7
:0A2332008B488A49894A8C4B8D4C78
:10233C008B4D8A4E894FAE02AF0153070F7E00C3FF
:10234C00E99FF9EA9E8B4DF54E894F7BFF7A2379F5
:10235C00ED120C5EAB4DAA4EA94F1221E87410255C
:10236C004FF54FE4354EF54EAB48E54A254CF9E5B3
:10237C0049354BFAEB8A838982C3E54F9582E54E4A
:04238C00958340D025
:01239000222A
:101E3F00E4F53374352533F8E4F60533E533B40BA5
:101E4F00F274FFF543F542F541F540E4F533122501
:101E5F00F28F34E534C394304017E534D3943950BE
:101E6F001074352533F8A6340533AF34122523808B
:101E7F0050E53464086005E534B47F1A15337435C2
:101E8F002533F8E4F67F081225707F201225707F26
:101E9F0008122570802BE534640D6005E534B40A13
:101EAF001D7B007A007935121D618F438E428D4163
:101EBF008C407F0D1225707F0A1225708003E4F588
:101ECF0034E533B40A1B7B007A007935121D618F1C
:101EDF00438E428D418C407F0D1225707F0A122553
:101EEF007074FFFFFEFDFCAB43AA42A941A840C39B
:101EFF001202877003021E5DAF43AE42AD41AC408C
:011F0F0022AF
:030000000225DCFA
:0C25DC00787FE4F6D8FD75816F0215C908
:10000300BB010689828A83E0225002E722BBFE02FB
:09001300E32289828A83E493222E
:10001C00BB010CE58229F582E5833AF583E0225099
:10002C0006E92582F8E622BBFE06E92582F8E222E3
:0D003C00E58229F582E5833AF583E49322FD
:10004900BB010FF8E58229F582E5833AF583E028BB
:10005900F0225009C58229F8E58226F622BBFE095D
:10006900C58229F8E22582F222F8EA2583F583E997
:03007900932822A7
:10007C00BB010689828A83F0225002F722BBFE0163
:02008C00F3225D
:10008E00F8BB010DE58229F582E5833AF583E8F0A8
:10009E00225006E92582C8F622BBFE05E92582C854
:0200AE00F2223C
:1000B000BC000BBE0029EF8DF084FFADF022E4CC34
:1000C000F875F008EF2FFFEE33FEEC33FCEE9DECFD
:1000D000984005FCEE9DFE0FD5F0E9E4CEFD22ED43
:1000E000F8F5F0EE8420D21CFEADF075F008EF2F8D
:1000F000FFED33FD4007985006D5F0F222C398FD7E
:050100000FD5F0EA221A
:10010500BB0110E58229F582E5833AF583E0F5F038
:10011500A3E0225009E92582F886F008E622BBFE15
:100125000AE92582F8E2F5F008E222E5832AF5835B
:08013500E993F5F0A3E9932220
:10013D00F8BB0111E58229F582E5833AF583E8F0F4
:10014D00E5F0A3F0225009E92582C8F608A6F022B1
:0D015D00BBFE09E92582C8F2E5F008F22298
:10016A00E88FF0A4CC8BF0A42CFCE98EF0A42CFC34
:10017A008AF0EDA42CFCEA8EF0A4CDA8F08BF0A4B2
:10018A002DCC3825F0FDE98FF0A42CCD35F0FCEB11
:10019A008EF0A4FEA9F0EB8FF0A4CFC5F02ECD39D6
:0F01AA00FEE43CFCEAA42DCE35F0FDE43CFC2243
:1001B90075F008758200EF2FFFEE33FECD33CDCCFD
:1001C90033CCC58233C5829BED9AEC99E582984080
:1001D9000CF582EE9BFEED9AFDEC99FC0FD5F0D65D
:1001E900E4CEFBE4CDFAE4CCF9A88222B800C1B987
:1001F9000059BA002DEC8BF084CFCECDFCE5F0CBC5
:10020900F97818EF2FFFEE33FEED33FDEC33FCEBFD
:1002190033FB10D703994004EB99FB0FD8E5E4F9B8
:10022900FA227818EF2FFFEE33FEED33FDEC33FCA5
:10023900C933C910D7059BE99A4007EC9BFCE99A99
:10024900F90FD8E0E4C9FAE4CCFB2275F010EF2FDE
:10025900FFEE33FEED33FDCC33CCC833C810D707DE
:100269009BEC9AE899400AED9BFDEC9AFCE899F819
:0E0279000FD5F0DAE4CDFBE4CCFAE4C8F922AC
:10028700EB9FF5F0EA9E42F0E99D42F0E89C45F0CD
:010297002244
:10029800E8600FECC313FCED13FDEE13FEEF13FF44
:0302A800D8F12268
:1002AB00E8600FEFC333FFEE33FEED33FDEC33FCB1
:0302BB00D8F12255
:1002BE00BB010DE58229F582E5833AF58302035CE5
:1002CE005007E92582F8020312BBFE07E92582F8E2
:1002DE00020368E58229F582E5833AF58302037409
:1002EE00BB010DE58229F582E5833AF5830203C64B
:1002FE005007E92582F80203BABBFE07E92582F80A
:04030E000203D222F2
:0C031200E6FC08E6FD08E6FE08E6FF2217
:10031E00BB010DE58229F582E5833AF5830203914F
:10032E005007E92582F8020384BBFE07E92582F80F
:10033E0002039DE58229F582E5833AF5830203AA3D
:10252300EFB40A07740D12252E740A309811A89976
:10253300B8130CC2983098FDA899C298B811F63018
:0725430099FDC299F59922F0
:100BFC00E56A245EF8E6056A22785B300702785EC7
:100C0C00E475F0011203DE0200032000EB7F2ED20C
:100C1C00008018EF540F2490D43440D4FF30040BD0
:100C2C00EF24BFB41A0050032461FFE56B6002157A
:100C3C006B056EE56E7002056D30070D785BE47523
:100C4C00F0011203DEEF02007C0225237403D207AD
:100C5C008003E4C207F56A8B5B8A5C895DE4F56B03
:100C6C00F56DF56EE56B60077F20120C3780F5751E
:100C7C006CFFC201C200C202C203C205C206C20896
:100C8C00120C05FF700D3007057F00120C48AF6E7B
:100C9C00AE6D22B4255FC2D5C204120C05FF24D060
:100CAC00B40A00501A75F00A786B30D50508B6FFF7
:100CBC000106C6A426F620D5047002D20380D924DE
:100CCC00CFB41A00EF5004C2E5D204020E48D20190
:100CDC0080C6D20080C0D20280BCD2D580BAD205E8
:100CEC0080B47F20120C372002077401B56B0040D2
:100CFC00F1120BFCFF120C37020C70D208D20680DA
:100D0C0095120BFCFB120BFCFA120BFCF94A4B7004
:100D1C000679197A0F7BFF20022EE56B602A7E0084
:100D2C008E8275830012001C60060EEE656C70F0EE
:100D3C00C2D5EBC0E0EAC0E0E9C0E0EE120E8FD005
:100D4C00E0F9D0E0FAD0E0FB120003FF60AAEBC0A0
:100D5C00E0EAC0E0E9C0E0120C37D0E02401F9D0A1
:100D6C00E03400FAD0E0FBE56C0460DCD56CD98093
:100D7C00877BFF7A0E798BD202809C791080027966
:100D8C0008C206C2088008D2D5790A8004790AC242
:100D9C00D5E56C047002F56CE4FAFDFEFF120BFC59
:100DAC00FC7B08200113120BFCFD7B1030000A1297
:100DBC000BFCFE120BFCFF7B20EC3382D592D55042
:100DCC0013C3E43000069FFFE49EFEE42001039D64
:100DDC00FDE49CFCE4CBF8C201EC700CCFCECDCC86
:100DEC00E824F8F870F38017C3EF33FFEE33FEED11
:100DFC0033FDEC33FCEB33FB994002FB0FD8E9EBF2
:100E0C00300105F8D0E0C448B201C0E00AEC4D4E08
:100E1C004F78207B0070C2EAB56C0040BCC0E01279
:100E2C000E91D0F0D0E0200104C4C0E0C4B201C0E7
:100E3C00F0120C20D0F0D5F0EB020C701203EE0D7A
:100E4C000D530D87580CDE4C0CDA420D8B4F0D9365
:100E5C00440D93490CF3430D99550D7D460D7D457D
:100E6C000D7D470F39500CE22D0CE62E0D092B0C85
:100E7C00EA230D07200F272A0CA24800000D013F82
:100E8C003F3F00790AA2D5200314300509B910029E
:100E9C000404B9080104A2D5200602500104200262
:050EAC00689202B56B25
:100EB100005034C0E07F203003197F30A202720657
:100EC1007205500F120EE8C202C206C205C2087FA7
:100ED10030800F300503E9C0E0120C37300503D034
:100EE100E0F9D0E0B56BCC3005177F30B9100C12AA
:100EF1000C377F583004077F788003B90803120C40
:100F0100373002057F2D020C377F202008F87F2B18
:100F11002006F322920280CF286E756C6C29002D79
:100F210050434958D201120BFC3001F8C201786BD1
:100F310030D50108F6020CA2120BFC2403B4050003
:100F41004001E4900F2093120C28743A120C28D21D
:070F510003756B04020D871C
:1025A30010090B1225E8BF0D027F0A022523AF088D
:0125B3002205
:101D61008B448A458946AB44AA45A946120003FF24
:101D7100122590500D74012546F546E43545F5458B
:101D810080E4D200AB44AA45A946120003FF642BAC
:101D91006004EFB42D1BAB440546E546AA4570022D
:101DA100054514F9120003642D6003D38001C39229
:101DB10000E4F54AF549F548F547AB44AA45A9467B
:101DC100120003FF1225B4505CE47F0AFEFDFCAB58
:101DD1004AAA49A948A84712016AC8ECC8EDC0E05F
:101DE100EEC0E0EFC0E0AB44AA45A946120003FFF4
:101DF1003395E0FEEF24D0FFEE34FFFEE4FCFDD08E
:101E0100E0FBD0E0FAD0E0F9EB2FF54AEA3EF549E4
:101E1100ED39F548EC38F54774012546F546E435CA
:101E210045F545809530000AAF4AAE49AD48AC470B
:0E1E3100800BAF4AAE49AD48AC4712034E22BB
:0E034E00C3E49FFFE49EFEE49DFDE49CFC22C0
:0C035C00E0FCA3E0FDA3E0FEA3E0FF2214
:0C036800E2FC08E2FD08E2FE08E2FF22D1
:10037400E493FC740193FD740293FE740393FF22CF
:0D038400E6FB08E6F908E6FA08E6CBF822E9
:0C039100E0F8A3E0F9A3E0FAA3E0FB22EF
:0D039D00E2FB08E2F908E2FA08E2CBF822E0
:1003AA00E493F8740193F9740293FA740393FB22A9
:0C03BA00ECF608EDF608EEF608EFF6226F
:0C03C600ECF0A3EDF0A3EEF0A3EFF022AA
:0C03D200ECF208EDF208EEF208EFF22267
:1003DE00FAE6FB0808E6F925F0F618E6CA3AF62220
:1003EE00D083D082F8E4937012740193700DA3A39E
:1003FE0093F8740193F5828883E4737402936860B2
:06040E00EFA3A3A380DFB1
:0A25E8003098FDAF99C2987E0022E2
:0F25B400EFC394304007EF943A50028001C322E6
:10259000EFC394094005EF940E4003BF2003D3809E
:0325A00001C32252
:00000001FF
